:020000040800F2
:100000008804002045010008792A0008831C0008A4
:10001000752A0008F1070008FD6B000800000000C9
:1000200000000000000000000000000099320008FD
:10003000D108000800000000852B000849340008A2
:100040005F0100085F0100085F010008912D0008B2
:100050005F0100085F010008E51000085F0100086B
:100060005F0100085F010008AD1100085F01000892
:100070005F0100085F0100085F0100085F010008E0
:100080005F0100085F0100085F0100085F010008D0
:100090005F0100085F0100085F0100085F010008C0
:1000A0005F0100085F0100085F0100085F010008B0
:1000B000B93500085F0100085F0100085F01000812
:1000C0005F0100085F0100085F0100085F01000890
:1000D0005F0100085F0100085F0100085F01000880
:1000E000451100085F0100085F0100085F0100087A
:1000F0005F0100085F0100085F0100085F01000860
:100100005F0100085F0100085F0100085F0100084F
:100110005F0100085F01000835360008013800085B
:100120005F0100085F0100085F0100085F0100082F
:10013000DFF80CD000F042FB004800479181000836
:10014000880400200648804706480047FEE7FEE78F
:10015000FEE7FEE7FEE7FEE7FEE7FEE7FEE7FEE777
:100160007934000831010008D2B201E000F8012B17
:10017000491EFBD270470022F6E710B513460A4627
:1001800004461946FFF7F0FF204610BD421C10F848
:10019000011B0029FBD1801A70472DE9FE4F8046D4
:1001A00081EA0300C00F0C46009021F0004123F0CB
:1001B0000045B8EB0200A94105D2404621469046D1
:1001C0001C460B46024623F00040104347D0270D43
:1001D000C7F30A00C3F30A510290401A0190402865
:1001E0006BDAC3F3130040F4801B0098924620B1F1
:1001F0000023D2EB030A63EB0B0B01985946C0F1C5
:100200004002504600F000FA06460D465046594658
:10021000019A00F018FA10EB08006141002487EA07
:10022000115284EAE7731A4340D0009A62B3019AEC
:10023000012A4FEA075215DC001B61EB02014FF067
:10024000004202EA0752CDE90042001C41F580114C
:1002500032462B4600F04DFA03B0BDE8F08F404621
:100260002146F9E7001B61EB0201001C41F58013F8
:1002700000185B412018A2F5001747EB030140EA84
:10028000D570B6196D4111E06D084FEA360645EAA2
:10029000C0754FEA0752001B61EB0201001C41F5DB
:1002A000801149084FEA30000019514132462B466F
:1002B00003B0BDE8F04F00F00FBA009801224000F3
:1002C0000023D0EB020263EBE073009821464FEA73
:1002D000E074B8EB000061EB0401E9E783F0004350
:1002E0005BE781F0004158E72DE9FE4F81EA030406
:1002F00004F0004421F0004100944FF0000B23F083
:10030000004350EA01045ED052EA03045BD0C3F319
:100310000A54C1F30A552C44A4F2F3340194A0FB0F
:100320000254C1F3130141F48011C3F3130343F4E6
:10033000801301FB024400FB034E840A970A44EA3F
:10034000815447EA8357A4FB076802958D0A05FB91
:1003500007854FEA932C04FB0C542705029D4FEAB6
:10036000065847EA1637B5EB08056EEB070C870E03
:10037000920E47EA811742EA8312A7FB0201B6EB0D
:100380000B0164EB00042B0D43EA0C335E1844EBC5
:100390001C50DA465146E7FB0201C5F313044FEA4D
:1003A0000B3343EA14534FEA0432019C43EA060339
:1003B000A4F10C040294009CCDE900B400F099F97A
:1003C00003B0BDE8F08F00200146F9E72DE9F04DBC
:1003D00081EA030404F0004B21F0004514464FF07D
:1003E000000A23F0004150EA050220D054EA01023D
:1003F0001DD0C5F30A570246C5F31303C1F313001A
:10040000C1F30A5640F4801543F48013A7EB0608A5
:10041000101BD64608F2FD3873EB050002D308F135
:10042000010801E092185B41B8F1000F03DA0020E7
:100430000146BDE8F08D00204FF480110646844649
:100440000EE0171B73EB050705D3121B63EB0503C7
:1004500006434CEA010C49084FEA300092185B4110
:1004600050EA0107EDD152EA030012D082EA0400FB
:1004700083EA0501084305D0101BAB4106D20122D7
:10048000002306E000224FF0004302E06FF001027B
:1004900053101AEB06004CEB085110EB0A0041EB2D
:1004A0000B01BDE8F04D00F017B90EB5C10F80EAA1
:1004B000E0700844CA07002140F233438DE80E0083
:1004C0000A460B4600F015F903B000BD0EB540F228
:1004D000334102910021CDE900110A460B4600F09C
:1004E00008F903B000BD70B5C1F30A5201F0004530
:1004F0000024C1F3130140F2FF3341F480119A420A
:1005000001DA002070BD40F233439A42A2F2334236
:1005100003DC524200F087F800E090402C43F1D019
:10052000404270BDC1F30A5210B5C1F3130140F24D
:10053000FF3341F480119A4201DA002010BD40F2ED
:1005400033439A42A2F2334203DC524200F06BF88A
:1005500010BD904010BD00F0004230F000400AD0C5
:10056000C10D01F56071C0F3160042EA0151C208E5
:1005700040071143704700200146704730B50029FD
:1005800004DB4FF00044404264EB0101002B04DB2C
:100590004FF00044524264EB03038B4208BF824297
:1005A00030BD000001F0004330B421F0004150EABA
:1005B000010206D00A0DA2F56072C1F31301002AF0
:1005C00002DC30BC00207047440F44EAC104C10083
:1005D000E01830BC00EBC25000F047B830B50B4615
:1005E000014600202022012409E021FA02F59D4263
:1005F00005D303FA02F5491B04FA02F52844151E37
:10060000A2F10102F1DC30BD202A04DB203A00FA1D
:1006100002F1002070479140C2F1200320FA03F359
:10062000194390407047202A04DB203A21FA02F057
:100630000021704721FA02F3D040C2F1200291401C
:10064000084319467047202A06DBCB17203A41FAA7
:1006500002F043EAE07306E041FA02F3D040C2F14F
:10066000200291400843194670470029A8BF7047EF
:10067000401C490008BF20F00100704710B4B0FAD8
:1006800080FC00FA0CF050EA010404BF10BC704773
:1006900049B1CCF1200421FA04F411FA0CF118BF8D
:1006A000012121430843A3EB0C01CB1D4FEA00615C
:1006B0004FEA102042BF002010BC704700EBC3502F
:1006C00010440029A4BF10BC7047401C490008BF5B
:1006D00020F0010010BC704710B5002B08DA401C58
:1006E00041F1000192185B411A4301D120F0010051
:1006F00010BD2DE9F04D92469B4611B1B1FA81F241
:1007000002E0B0FA80F220329046FFF77DFF044607
:100710000F4640EA0A0041EA0B0153465A46084395
:1007200013D0114653EA010019D0C8F140025046D7
:10073000FFF779FF05460E46504659464246FFF7F9
:1007400063FF084305D0012004E020463946BDE898
:10075000F08D0020054346EAE0762C4337430A98A3
:100760006305E40AA0EB08000022FD0A44EA4754AE
:100770000A3002D500200146E9E701051019694158
:10078000DDE9084500196941BDE8F04DA4E770B501
:1007900021F0004303430CD0C1F30A550024D5EBEC
:1007A000040564EB0403D617AD1AB34102DB002045
:1007B000014670BD201841EB025170BD064C074D3B
:1007C00006E0E06840F0010394E807009847103421
:1007D000AC42F6D3FFF7B0FCD8D80008F8D8000830
:1007E00010B5012002F020FA002002F01DFA10BD21
:1007F00000BFFEE72DE9F04107460C464FF0000828
:10080000002500263048B7FBF0F5002D33D040F22C
:10081000B2760DE0B0B202F0D7F830B1B5F5B77FDF
:1008200002D3A5F5B77502E005E0A5F26D15761CBB
:10083000B5F5B67FEED800BF2680012614E02088EB
:1008400002F0C2F830B1022E04D11D2D01D31D3D9E
:1008500009E00BE01D48805DA84203D81B48805D7D
:100860002D1A00E002E0761C1C2DE8D200BFE670D5
:10087000681C207105E040F2B27020800120E07019
:1008800020711148B7FBF0F100FB11784FF4616063
:10089000B8FBF0F060714FF46160B8FBF0F100FB61
:1008A00011803C21B0FBF1F0A0713C20B8FBF0F1CD
:1008B00000FB1180E0712279E178208801F0A6F92F
:1008C000A070BDE8F0810000805101008A8300081B
:1008D000704700BF411E0800FCD1704700B595B0BD
:1008E00022200F902A200E9006200C9050200B9072
:1008F000FB4880780690FA48008801220590069906
:1009000001F084F90890F6488078F649085C09906F
:10091000F3488078022809D1F1480088069002F057
:1009200053F8012802D10998401C09904FF6FF7036
:100930004FF4A073F02200210090084601F0B6F9B0
:1009400045F6DA403623F02200210090084601F0F7
:10095000ADF94FF6E0701223F0223621009000200E
:1009600001F0A4F9DE4800880246DFA1069012A833
:1009700006F0B4FE4FF4784000900B983A3880B2FD
:1009800045F6DA4312AA01460690002001F031FB39
:100990004FF4784000900B983A3880B245F6DA432D
:1009A000D2A201460690402001F023FBCC4880787B
:1009B0000246CDA1069012A806F090FE4FF47840B2
:1009C00000900B983A3880B245F6DA4312AA0146F5
:1009D0000690502001F00DFB4FF4784000900B98EA
:1009E0002D3880B245F6DA43C1A201460690962022
:1009F00001F051FB0020119005200D900020109077
:100A000045E0109810B1109806281FD14FF4784097
:100A1000BA490090109801EB800006900E9A119947
:100A20000B9801FB02010C9808441C3880B2059019
:100A3000DDE90F210D9801FB020080B24FF6E07353
:100A40000490DDE9051201F0ABFA1DE00020AB498E
:100A50000090109801EB800006900E9A11990B9867
:100A600001FB02010C9808441C3880B20590DDE9B6
:100A70000F210D9801FB020080B24FF6E073049045
:100A8000DDE9051201F08CFA1098401C10901098C6
:100A90000728B6D301200A900020119022200F9041
:100AA00028200E9002200C904C200B900D200D90D1
:100AB00008981090F7E08CA112A80A9A06F00EFE92
:100AC000109810B11098062838D14FF47840009053
:100AD0000E9A11990B9801FB02010C98084480B200
:100AE0000690DDE90F210D9801FB020080B24FF660
:100AF000FF7312AA0590069901F052FA002080496E
:100B000000900A9801EBC00006900E9A11990B987C
:100B100001FB02010C980844103080B20590DDE919
:100B20000F210D9801FB0200093880B24FF6FF73C8
:100B30000490DDE9051201F005FA36E0002000908E
:100B40000E9A11990B9801FB02010C98084480B28F
:100B50000690DDE90F210D9801FB020080B24FF6EF
:100B6000FF7312AA0590069901F01AFA0020644951
:100B700000900A9801EBC00006900E9A11990B980C
:100B800001FB02010C980844103080B20590DDE9A9
:100B90000F210D9801FB0200093880B24FF6FF7358
:100BA0000490DDE9051201F0CDF94D48C1780A98AD
:100BB00081421CD100201F21CDE900100E98401C5D
:100BC00080B206900F9880B205900E9A11990B98FA
:100BD00001FB0200001F80B20490DDE90F104843C2
:100BE000401C80B2039004A90EC901F0BEFB454928
:100BF00009780A98884250D101201F21CDE90010C0
:100C00000E98401C80B206900F9880B205900E9A04
:100C100011990B9801FB0200001F80B20490DDE9DE
:100C20000F104843401C80B2039004A90EC901F084
:100C30009CFB4FF6FF7000900E9A11990B9801FBE8
:100C400002010C98084480B20690DDE90F210D984E
:100C500001FB020080B21F2312AA0590069901F041
:100C60009FF90020264900900A9801EBC0000690E9
:100C70000E9A11990B9801FB02010C980844103050
:100C800080B20590DDE90F104843401C80B21F235D
:100C90000490DDE9051201F055F90A98401C0A900C
:100CA0001098401C109010980728FFF404AF089883
:100CB000042802DD0720079001E0062007900220AB
:100CC000119022E10020109017E107A112A80A9AC2
:100CD00006F004FD0A980A2816D20D200D9015E0A2
:100CE000160000208A830008256400002D00000003
:100CF0003C3C20BDF1CCEC203E3E00006E83000861
:100D0000978300081E00002009200D90109810B154
:100D10001098062837D14FF4784000900E9A119918
:100D20000B9801FB02010C980844283880B2069009
:100D3000DDE90F210D9801FB020080B24FF6FF7331
:100D400012AA0590069901F02BF90020E0490090C5
:100D50000A9801EBC00006900E9A11990B9801FBBE
:100D600002010C980844183880B20590DDE90F1094
:100D70004843401C80B24FF6FF730490DDE9051232
:100D800001F0E0F835E0002000900E9A11990B98E0
:100D900001FB02010C980844283880B20690DDE976
:100DA0000F210D9801FB020080B24FF6FF7312AACB
:100DB0000590069901F0F4F80020C54900900A98C2
:100DC00001EBC00006900E9A11990B9801FB0201ED
:100DD0000C980844183880B20590DDE90F1048439C
:100DE000401C80B24FF6FF730490DDE9051201F05C
:100DF000A9F8B848C1780A9881421CD100201F2167
:100E0000CDE900100E98401C80B206900F9880B279
:100E100005900E9A11990B9801FB02002C3880B2B4
:100E20000490DDE90F104843401C80B2039004A9F0
:100E30000EC901F09AFAA84909780A98884251D156
:100E400001201F21CDE900100E98401C80B20690B1
:100E50000F9880B205900E9A11990B9801FB020031
:100E60002C3880B20490DDE90F104843401C80B25A
:100E7000039004A90EC901F078FA4FF6FF700090B4
:100E80000E9A11990B9801FB02010C98084428381E
:100E900080B20690DDE90F210D9801FB020080B2BF
:100EA0001F2312AA0590069901F07AF800208849BC
:100EB00000900A9801EBC00006900E9A11990B98C9
:100EC00001FB02010C980844183880B20590DDE956
:100ED0000F104843401C80B21F230490DDE9051227
:100EE00001F030F80A98401C0A90DDE909108842A8
:100EF00000D906E01098401C109010980728FFF4C5
:100F0000E4AE00BF1198401C1190079911988842D7
:100F1000FFF4D8AE1198401E11901098062830D2D8
:100F20001098401C109001200A9027E0AFF2482151
:100F300012A80A9A06F0D2FB0D200D904FF2DE7037
:100F400000900E9A11990B9801FB02010C9808442D
:100F5000283880B20690DDE90F210D9801FB0200D0
:100F600080B24FF6FF7312AA0590069901F018F8A7
:100F70000A98401C0A901098401C1090109807285E
:100F8000D4D30898002856D05448C078401E5349FE
:100F9000C8700846C07828B908460088401E0880F6
:100FA0000C20C8704D48C0784D49085C09904B48EA
:100FB000C078022809D149480088069001F004FD54
:100FC000012802D10998401C09900120119009982C
:100FD000401C0899401A0A900020109027E0AFF2B8
:100FE000F82112A80A9A06F079FB09200D904FF219
:100FF000DE7000900E9A11990B9801FB02010C987B
:101000000844283880B20690DDE90F210D9801FBD5
:10101000020080B24FF6FF7312AA0590069900F005
:10102000BFFF0A98401C0A901098401C1090089925
:1010300010988842D3D328200E90002011901F20B2
:1010400000901198401C00EB40010B9800EBC10090
:101050001C3880B206901198401C00EB40010B98A0
:1010600000EBC1001C3880B20590EB220146052040
:10107000069B01F023F90898042802DD0720079059
:1010800001E006200790012011901AE01F20009037
:101090001198401C0E9A0B9900FB02102C3880B25C
:1010A00006901198401C00FB02102C3880B205906D
:1010B000EB2201460520069B01F000F91198401C27
:1010C0001190079911988842E0D315B000BD000037
:1010D00097830008160000201E0000200E0000204C
:1010E0008A83000808B5012000F07EF828B3134871
:1010F000007880B90221124800F0E6FA1F204FF470
:10110000A073F02200210090084600F0CFFD0120DE
:101110000A4908700EE00221094800F0D7FA0020C1
:101120004FF4A073F0220146009000F0BFFD0020B4
:1011300002490870012000F051F808BD600000204D
:10114000000C014008B54FF4005000F04DF838B3E2
:101150001448007888B90121134800F0B5FA4FF41B
:10116000FC604FF4A073F02200210090084600F0CC
:101170009DFD01200B4908700EE001210A4800F096
:10118000A5FA00204FF4A073F0220146009000F071
:101190008DFD0020034908704FF4005000F01EF848
:1011A00008BD000061000020000C014010B51020B7
:1011B00000F01AF860B11021064800F07CFA08B976
:1011C000012000E0002004490870102000F006F81B
:1011D00010BD0000001801405800002001490860BF
:1011E0007047000014040140014600200022074B14
:1011F0001B6803EA0102054B14331B680B4013B153
:101200000AB1012000E00020704700000004014006
:10121000002123498279002A3AD00A4612680368DD
:101220009A430B461A600A1D126803689A430B1D05
:101230001A60027911440A6803681A430A60184A5E
:101240000832126803689A43154B08331A601A1D56
:10125000126803689A43124B0C331A604279102AC1
:101260000ED11A1F126803681A430D4B08331A6017
:101270001A1D126803681A43094B0C331A600DE0FB
:101280000749427911440A6803681A430A6005E075
:10129000027911440A6803689A430A6070470000A3
:1012A0000004014000B587B000BF00BF0121152038
:1012B00001F09AFC0121080301F096FC2020ADF812
:1012C000040003208DF8060018208DF8070001A9FE
:1012D000264800F065F94020ADF8040001A9234834
:1012E00000F05EF98020ADF8040001A91F4800F06D
:1012F00057F90120ADF8040010208DF8070001A96E
:101300001B4800F04DF90121194800F0DFF90020D9
:10131000ADF808004FF48270ADF80A000020ADF877
:101320000C000220ADF80E000120ADF810004002C4
:10133000ADF812000820ADF814000020ADF816003A
:101340000720ADF8180002A90A4801F06DFF01213D
:10135000084801F088FD01F09BFE0749884202D150
:10136000002007B000BD0120FBE70000000801409D
:1013700000100140003001401740EF0051B18200E1
:10138000A2F1C042126842F001038200A2F1C04201
:10139000136009E08200A2F1C0421268034B1A40B8
:1013A0008300A3F1C0431A6070470000FEFF0F00E6
:1013B000D0E901121143C268114302691143426925
:1013C000114382691143C2691143026A1143426A9F
:1013D0001143826A1143C26A1143026B11430268CE
:1013E0009200A2F1C0421160816808290BD1016806
:1013F0008900A1F1C041096841F0400201688900FB
:10140000A1F1C0410A60416B0968426B526841EA30
:101410000211426B926841EA0221426B928941EAD1
:101420000241426B128A41EA0251426B127D41EA4B
:101430000261426B926911430268521C9200A2F150
:10144000C0421160C16AB1F5804F1BD1816B096840
:10145000826B526841EA0211826B926841EA022172
:10146000826B128A41EA0251826B127D41EA02616B
:10147000826B9269114302689200A2F1C042C2F8E5
:10148000041107E06FF0704201688900A1F1C041CA
:10149000C1F804217047000008B501F0DBFD01220E
:1014A0000021684601F0ECFC9DF80000522805D1AF
:1014B000302201210C4801F0E3FC13E000BF05F0ED
:1014C000CDFE0028FBD052200090002001F008FE45
:1014D00001220021684601F0FBFC30220121024874
:1014E00001F0F6FC08BD00002800002008B501212D
:1014F0001C2001F079FB2320ADF8000003208DF8BB
:10150000020010208DF803006946124800F048F8E8
:101510000120ADF8000004208DF8030069460E4854
:1015200000F03EF84FF40050ADF8000004208DF8B4
:1015300003006946094800F033F80221054800F02D
:10154000C5F80121034800F0C1F82021014800F04E
:10155000BDF808BD000C014000080140001001402A
:1015600030B500228B071C0F0F2303FA04F20B4B3C
:101570008C1053F824309343084C8D1044F82530D8
:1015800023468C1053F824308C07240F00FA04F4FF
:101590002343024C8D1044F8253030BD0800014033
:1015A0002DE9F041024600250026002000230024FA
:1015B000002791F803C00CF00F0591F803C00CF060
:1015C000100CBCF1000F03D091F802C04CEA0505E5
:1015D00091F800C0BCF1000F31D0146800202BE05E
:1015E0004FF0010C0CFA00F3B1F800C00CEA03064E
:1015F0009E4220D183004FF00F0C0CFA03F7BC433E
:1016000005FA03FC4CEA040491F803C0BCF1280F6E
:1016100006D14FF0010C0CFA00FCC2F814C00AE02D
:1016200091F803C0BCF1480F05D14FF0010C0CFA42
:1016300000FCC2F810C0401C0828D1D31460B1F8D7
:1016400000C0BCF1FF0F34DD546800202EE000F133
:10165000080C4FF0010808FA0CF3B1F800C00CEACE
:1016600003069E4221D183004FF00F0C0CFA03F7C2
:10167000BC4305FA03FC4CEA040491F803C0BCF136
:10168000280F05D100F1080C08FA0CF8C2F81480F4
:1016900091F803C0BCF1480F07D100F1080C4FF0DE
:1016A000010808FA0CF8C2F81080401C0828CED3B4
:1016B0005460BDE8F0810246002093680B400BB1F6
:1016C000012000E0002070474161704701617047D0
:1016D0002DE9F04105460C462612E7B2A6F1B0000E
:1016E000C0EB001101EB401007EB4000A1384FEABE
:1016F000401808F580512022284601F0C1FB002047
:10170000BDE8F081FC490978002974D1FB49097AC8
:10171000002910D0F949898817290DDBF7498988F4
:10172000372909DAF549C988102905DBF349C98841
:10173000302901DA792063E2F04989884D290DDBEF
:10174000EE4989886D2909DAEC49C988102905DB39
:10175000EA49C988262901DA7A2051E2E7498988CD
:1017600083290DDBE5498988A32909DAE349C9887A
:10177000102905DBE149C988262901DA7B203FE2EF
:10178000DE498988B9290DDBDC498988D92909DA3C
:10179000DA49C988102905DBD849C988262901DA20
:1017A0007C202DE2D54989884B290DDBD3498988D6
:1017B000AF2909DAD149C988D22905DBCF49C988BF
:1017C000FA2901DA7D201BE2CC4989885A290FDBEE
:1017D000CA49898896290BDAC849C988FA2907DBDA
:1017E000C649C988B1F5967F02DA7E2008E202E098
:1017F0004FF6FF7004E2C049097801296FD1BF4953
:10180000097A002997D0BD49898817290DDBBB4982
:101810008988372909DAB949C988102905DBB74908
:10182000C988302901DA7920EAE1B44989884D294B
:101830000DDBB24989886D2909DAB049C9881029B8
:1018400005DBAE49C988262901DA7A20D8E1AB49FF
:10185000898883290DDBA9498988A32909DAA74941
:10186000C988102905DBA549C988262901DA7B200A
:10187000C6E1A2498988B9290DDBA0498988D929FF
:1018800009DA9E49C988102905DB9C49C98826299F
:1018900001DA7C20B4E199498988B9290DDB97499F
:1018A0008988E12909DA9549C988A52905DB934981
:1018B000C988B92901DA8A20A2E190498988B92921
:1018C0000EDB8E498988E1290ADA8C49C988DC292E
:1018D00006DB8A49C988F02902DA942090E14EE0BB
:1018E00086498988B9290FDB84498988E1290BDA7F
:1018F0008249C988B1F5897F06DD8049C988B1F57B
:10190000937F01DC9E207BE17C4989880A290DDBDD
:101910007A4989884D2909DA7849C9889B2905DBE4
:101920007649C988B72901DA892069E1734989882C
:101930000A290DDB714989884D2909DA6F49C9885F
:10194000D22905DB6D49C988ED2901DA932057E1D9
:101950006A4989880A290FDB684989884D290BDA89
:101960006649C988B1F5847F06DD6449C988B1F547
:10197000927F01DA9D2043E14FF6FF7040E15E491E
:101980000978062915D15D49097A002994D05B4967
:1019900089880A2990DB5949898846298CDA574970
:1019A000C9880A2988DB5549C9881E2984DAAB20F1
:1019B00026E15149097802294ED15049097A002976
:1019C0008CD04E49898817290DDB4C4989883729E5
:1019D00009DA4A49C988102905DB4849C9883029EC
:1019E00001DA79200CE1454989884D290DDB43490D
:1019F00089886D2909DA4149C988102905DB3F49E1
:101A0000C988262901DA7A20FAE03C4989888329A5
:101A10000DDB3A498988A32909DA3849C988102990
:101A200005DB3649C988262901DA7B20E8E03349FD
:101A30008988B9290DDB31498988D92909DA2F49E3
:101A4000C988102905DB2D49C988262901DA7C209F
:101A5000D6E04FF6FF70D3E027490978032952D129
:101A60002649097A002910D02449898817290DDBD5
:101A700022498988372909DA2049C988102905DBD4
:101A80001E49C988302901DA7920B9E01B498988C3
:101A90004D290DDB194989886D2909DA1749C9884B
:101AA000102905DB1549C988262901DA7A20A7E023
:101AB0001249898883290DDB10498988A32909DA0D
:101AC0000E49C988102905DB0C49C988262901DA85
:101AD0007B2095E009498988B92911DB0749898864
:101AE000D9290DDA0549C988102909DB0349C988B4
:101AF000262905DA7C2083E00C0000207C000020F1
:101B00004FF6FF707CE03F490978042914D13E4923
:101B1000097A49B33C4989880A2971DB3A4989889D
:101B200046296DDA3849C9880A2969DB3649C988E6
:101B30001E2965DA8D2063E032490978052914D120
:101B40003149097A81B1304989880A2958DB2E49FF
:101B50008988462954DA2C49C9880A2950DB2A4940
:101B6000C9881E294CDA8D204AE0264909782029A7
:101B700018D12549097A69B32349898800290EDBE0
:101B800021498988F0290ADA1F49C988002906DB1A
:101B90001D49C988B1F5A07F01DA6E2030E04FF60B
:101BA000FF702DE017490978102929D11649097AC3
:101BB00081B11549898800290DDB1349898840299D
:101BC00009DA1149C988162905DB0F49C988362960
:101BD00001DA6F2014E00C49898850290EDB0A498C
:101BE000898882290ADA0849C988162906DB064944
:101BF000C988362902DA40F2574001E04FF6FF70FB
:101C0000704700000C0000207C0000202DE9F04F00
:101C100004460D461646642094FBF0F394FBF0F85E
:101C200000FB18422F46032F01DA0C37521EB44630
:101C300007F101094FF01A0A09FB0AF94FF00A0AE5
:101C400099FBFAF94FEAE27A02EB9A7A02EBAA0AD6
:101C50004FEAE37B03EB9B7B0AEBAB0A4FF0020BF3
:101C60000BFB13AAD144E14409F15301002900DA26
:101C7000C91D072091FBF0F800FB1811C8B2BDE8A0
:101C8000F08F00BFFEE7000010B504462CB14FF402
:101C900080510548FFF718FD04E04FF480510248D9
:101CA000FFF714FD10BD0000001401402DE9F041C4
:101CB00006460F4614461D46DDF818802B46224680
:101CC0003946304600F0FDFC04FB05F0414600F0CB
:101CD000C4FBBDE8F08101B502E00098401E009011
:101CE00000980028F9D108BD2DE9F04F89B0814650
:101CF0008A4616461F46DDF848B010231A4651465C
:101D0000484600F0DEFC2C2000F054FE314601A8CD
:101D1000FFF7DEFC002426E001A810F814504FF66F
:101D2000FF7000EA0525012000EB440001A9085CD2
:101D300005434FF0000811E005F4004018B1584683
:101D400000F03CFE02E0384600F038FE4FF6FF702F
:101D500000EA450508F1010000F0FF08B8F1100F96
:101D6000EADB601CC4B2102CD6DB09B0BDE8F08FF2
:101D70002DE9F05F81468A4615461E46A5F12000F2
:101D800000F0FF0B102308225146484600F099FC52
:101D90002C2000F00FFE00241AE00F4800EB0B107F
:101DA000075D4FF000080EE007F0010018B10A9837
:101DB00000F004FE02E0304600F000FE7F1008F163
:101DC000010000F0FF08B8F1080FEDDB601CC4B2A1
:101DD000102CE2DBBDE8F09F978400082DE9F05F4E
:101DE00082468B4617469846A7F1200000F0FF096F
:101DF000202310225946504600F063FC2C2000F0AE
:101E0000D9FD00252EE0194800EB891010F8154087
:101E100000260CE004F0010018B10A9800F0CEFD95
:101E200002E0404600F0CAFD6410701CC6B2082EE5
:101E3000F0DB0E4800EB891000EB450044780026EB
:101E40000CE004F0010018B10A9800F0B7FD02E0C0
:101E5000404600F0B3FD6410701CC6B2082EF0DBE3
:101E6000681CC5B2202DCEDBBDE8F09F878A000834
:101E70002DE9F05F82468B4690469946A8F12000F6
:101E8000C7B2302318225946504600F01AFC2C20C5
:101E900000F090FD00264EE007EBC700284901EB5B
:101EA000001006EB4601445C00250CE004F0010044
:101EB00018B10A9800F082FD02E0484600F07EFD6D
:101EC0006410681CC5B2082DF0DB07EBC7001C4985
:101ED00001EB001006EB46010844447800250CE0B5
:101EE00004F0010018B10A9800F068FD02E04846CD
:101EF00000F064FD6410681CC5B2082DF0DB07EB30
:101F0000C7000F4901EB001006EB46010844847836
:101F100000250CE004F0010018B10A9800F04EFD15
:101F200002E0484600F04AFD6410681CC5B2082D66
:101F3000F0DB701CC6B2302EAEDBBDE8F09F0000B7
:101F400047A200082DE9F84305460E461446984678
:101F5000DDF820901FE028461030F02803DD002532
:101F600006F1100086B230461030B0F5A07F01DDDA
:101F7000002500262788380200EB272087B2434639
:101F80003A4631462846CDF80090FFF7ADFE05F100
:101F9000100085B2A41C20780028DCD1BDE8F883AD
:101FA0002DE9F84305460E4614461F46DDF820800D
:101FB0001AE028460830F02803DD002506F110005D
:101FC00086B230461030B0F5A07F01DD0025002636
:101FD000CDF8008022783B4631462846FFF7C8FE00
:101FE000641C05F1080085B220780028E1D1BDE825
:101FF000F8832DE9F84305460E4614461F46DDF8E2
:1020000020801AE028461030F02803DD002506F174
:10201000200086B230462030B0F5A07F01DD0025DB
:102020000026CDF8008022783B4631462846FFF74F
:10203000D5FE641C05F1100085B220780028E1D19E
:10204000BDE8F8832DE9F84305460E4614461F46C1
:10205000DDF820801AE028461830F02803DD00253E
:1020600006F1300086B230463030B0F5A07F01DD99
:1020700000250026CDF8008022783B4631462846D0
:10208000FFF7F6FE641C05F1180085B220780028E1
:10209000E1D1BDE8F8832DE9F84305460E46144624
:1020A0009946DDF820803EE020787E281BDC28461B
:1020B0000830F02803DD002506F1100086B2304616
:1020C0001030B0F5A07F01DD00250026CDF800809E
:1020D00022784B4631462846FFF74AFE05F10800B4
:1020E00085B2641C1FE028461030F02803DD00256F
:1020F00006F1100086B230461030B0F5A07F01DD49
:10210000002500262788380200EB272087B24B469F
:102110003A4631462846CDF80080FFF7E5FD05F147
:10212000100085B2A41C20780028BDD1BDE8F8833A
:102130002DE9F05F05460E4691469B4600240FFAB6
:1021400089F70320A0EB49000FFA80FA97E00A987C
:10215000002848D0A04643E006EB080291B22A19B5
:1021600090B25A4600F014FC06EB080291B22A1B0A
:1021700090B25A4600F00CFC321991B2A5EB08025D
:1021800090B25A4600F004FC321B91B2A5EB080253
:1021900090B25A4600F0FCFBA6EB080291B22A1B53
:1021A00090B25A4600F0F4FBA6EB080291B22A194D
:1021B00090B25A4600F0ECFB321B91B205EB0802DC
:1021C00090B25A4600F0E4FB321991B205EB0802D6
:1021D00090B25A4600F0DCFB08F101000FFA80F8DB
:1021E000B845B9DD37E0F21991B22A1990B25A46D2
:1021F00000F0CEFBF21991B22A1B90B25A4600F0C1
:10220000C7FB321991B2EA1B90B25A4600F0C0FBEC
:10221000321B91B2EA1B90B25A4600F0B9FBF21B96
:1022200091B22A1B90B25A4600F0B2FBF21B91B257
:102230002A1990B25A4600F0ABFB321B91B2EA1950
:1022400090B25A4600F0A4FB321991B2EA1990B24A
:102250005A4600F09DFB601C04B2BAF1000F05DA8B
:10226000A000801D50440FFA80FA07E0E01B8000B8
:102270000A3050440FFA80FA781E07B200BFBC4201
:102280007FF765AFBDE8F09F38B504460D464FF4C3
:102290007840A4F10A01009088B201231422294653
:1022A000FFF704FD4FF478400090A5F10A0081B2D9
:1022B000142301222046FFF7F9FC38BD2DE9FF4F1A
:1022C00085B081468A464FF0000B002001900798A8
:1022D000A0EB09050898A0EB0A06CDF80C90CDF804
:1022E00008A0002D01DD012705E00DB9002702E05F
:1022F0004FF0FF376D42002E02DD4FF0010806E07F
:1023000016B94FF0000802E04FF0FF387642B542B0
:1023100001DD2C4600E03446002004901EE0129AB5
:10232000DDE9021000F034FBAB4401983044019029
:10233000A34505DDABEB040B0398384480B2039052
:102340000198A04206DD0198001B019002984044CC
:1023500080B202900498401C80B20490611C0498E2
:102360008842DCDD09B0BDE8F08F2DE9F843044672
:102370000D4616461F46DDE90889B9F1000F08D061
:102380003B46324629462046CDF80080FFF78EFCBA
:102390002FE0A019401E82B22B4629462046CDF8D8
:1023A0000080FFF78BFFE819401E83B2A019401E82
:1023B00082B2E819401E81B22046CDF80080FFF7B6
:1023C0007DFFE819401E83B2224629462046CDF8FB
:1023D0000080FFF773FFE919491E8BB2A119491E4E
:1023E0008AB2A119491E88B22946CDF80080FFF7AC
:1023F00065FFBDE8F88300B597B00121080200F041
:10240000C3FB0220019000200290052003900020D1
:102410000490059006904FF080500790002008909F
:10242000099008200A9010200B9000200C900E902C
:102430000F9010904FF48050119000201290139044
:10244000149001A81590169008A8FEF7B1FF01217D
:102450000020FEF793FF17B000BD70B504460D468F
:1024600000262C2000F0A6FA00BF03E0284600F06A
:10247000A5FA761CA642F9D370BD000008B501216B
:10248000084600F0B1FB0121602000F0ADFB032005
:102490008DF8020018208DF803004CF20370ADF89F
:1024A000000069462C48FFF77BF84FF68070ADF8C6
:1024B000000069462948FFF773F803208DF80200F1
:1024C00018208DF803001020ADF80000694622485E
:1024D000FFF766F82020ADF8000069461E48FFF7B8
:1024E0005FF80121202000F07FFB8020ADF8000084
:1024F00069461948FFF754F80121202000F074FBC9
:102500004FF40060ADF8000069461348FFF748F843
:1025100010208DF8030003208DF8020001214020D7
:1025200000F062FB0220ADF8000069460B48FFF79F
:1025300037F810208DF8030003208DF802000121E8
:10254000202000F051FB4FF48050ADF800006946A8
:102550000148FFF725F808BD0014014000180140AC
:1025600010B50446012C06D0022C29D0032C4CD0E7
:10257000042C24D16EE0362000F01CFAC82000F0B4
:102580001DFA2A2000F016FA002000F017FA0020A9
:1025900000F014FA002000F011FAEF2000F00EFA1B
:1025A0002B2000F007FA002000F008FA002000F0CD
:1025B00005FA012000F002FA3F2000F0FFF96EE07A
:1025C000362000F0F7F9682000F0F8F92A2000F032
:1025D000F1F9002000F0F2F9002000F0EFF90120FD
:1025E00000F0ECF93F2000F0E9F92B2000F0E2F9CF
:1025F000002000F0E3F9002000F0E0F9002000F0F6
:10260000DDF9EF2000F0DAF949E0362000F0D2F9E8
:10261000282000F0D3F92A2000F0CCF9002000F0A7
:10262000CDF9002000F0CAF9012000F0C7F93F20E1
:1026300000F0C4F92B2000F0BDF9002000F0BEF935
:10264000002000F0BBF9002000F0B8F9EF2000F006
:10265000B5F924E0362000F0ADF9482000F0AEF9DD
:102660002A2000F0A7F9002000F0A8F9002000F0CF
:10267000A5F9002000F0A2F9EF2000F09FF92B202F
:1026800000F098F9002000F099F9002000F096F988
:10269000012000F093F93F2000F090F900BF00BF47
:1026A0002C2000F087F910BD10B5FFF7E7FEFFF70B
:1026B000A2FE0120FFF7E8FA00F04CF900F032F832
:1026C00010BD2DE9F04104460D4616461F462A204E
:1026D00000F070F9201200F071F9E0B200F06EF92C
:1026E000A119491EC1F30F2000F068F9A119491E74
:1026F000C8B200F063F92B2000F05CF9281200F05A
:102700005DF9E8B200F05AF9E919491EC1F30F204A
:1027100000F054F9E919491EC8B200F04FF9BDE8BC
:10272000F081000010B5CF2000F044F9002000F047
:1027300045F9812000F042F9302000F03FF9ED200A
:1027400000F038F9642000F039F9032000F036F980
:10275000122000F033F9812000F030F9E82000F079
:1027600029F9852000F02AF9102000F027F97820B7
:1027700000F024F9CB2000F01DF9392000F01EF9FB
:102780002C2000F01BF9002000F018F9342000F094
:1027900015F9022000F012F9F72000F00BF92020C3
:1027A00000F00CF9EA2000F005F9002000F006F92D
:1027B000002000F003F9B12000F0FCF8002000F048
:1027C000FDF81B2000F0FAF8B62000F0F3F80A201C
:1027D00000F0F4F8A22000F0F1F8C02000F0EAF8D0
:1027E000352000F0EBF8C12000F0E4F8112000F0F3
:1027F000E5F8C52000F0DEF8452000F0DFF84520C0
:1028000000F0DCF8C72000F0D5F8A22000F0D6F8E0
:10281000F22000F0CFF8002000F0D0F8262000F0E1
:10282000C9F8012000F0CAF8E02000F0C3F80F203A
:1028300000F0C4F8262000F0C1F8242000F0BEF813
:102840000B2000F0BBF80E2000F0B8F8092000F0D3
:10285000B5F8542000F0B2F8A82000F0AFF84620F8
:1028600000F0ACF80C2000F0A9F8172000F0A6F852
:10287000092000F0A3F80F2000F0A0F8072000F0D6
:102880009DF8002000F09AF8E12000F093F8002075
:1028900000F094F8192000F091F81B2000F08EF859
:1028A000042000F08BF8102000F088F8072000F0DA
:1028B00085F82A2000F082F8472000F07FF83920C0
:1028C00000F07CF8032000F079F8062000F076F89C
:1028D000062000F073F8302000F070F8382000F087
:1028E0006DF80F2000F06AF8362000F063F8C82079
:1028F00000F064F82A2000F05DF8002000F05EF897
:10290000002000F05BF8002000F058F8EF2000F005
:1029100055F82B2000F04EF8002000F04FF8002072
:1029200000F04CF8012000F049F83F2000F046F894
:102930003A2000F03FF8552000F040F8112000F058
:1029400039F80348FFF7C7F9292000F033F810BD24
:10295000FCBF020010B502210648FEF7B5FE06488E
:10296000FFF7B9F902210348FEF7B0FE0248FFF76E
:10297000B2F910BD00180140FCBF020070B504465A
:102980000D4601231A4629462046FFF79AFE70BDE0
:1029900070B506460C461546F02E0ADAB4F5A07F4F
:1029A00007DA21463046FFF7E9FF29460120FFF705
:1029B00054FD70BD4FF0C041088070470149088048
:1029C00070470000000002600146CA1701EB9272D6
:1029D0009210A1EB820292B9642091FBF0F200FB0D
:1029E000121050B94FF4C87091FBF0F200FB1210B6
:1029F00008B9012070470020FCE70120FAE7002019
:102A0000F8E7000010B501211548FEF754FE012833
:102A100007D141031348FEF74EFE012801D10324DC
:102A20001BE001210E48FEF746FE40B94FF400516D
:102A30000C48FEF740FE012801D102240DE00121DF
:102A40000748FEF738FE012806D141030548FEF786
:102A500032FE08B9012400E00024204610BD000029
:102A6000000801400010014010B5FFF71DFE04F002
:102A700066FA10BD00BFFEE7704708B51C208DF850
:102A8000000001208DF8010002208DF802000120D5
:102A90008DF80300684600F02DF836208DF8000010
:102AA00001208DF8010000208DF8020001208DF832
:102AB0000300684600F01EF837208DF80000012062
:102AC0008DF801008DF802008DF80300684600F0D3
:102AD00011F803208DF8000001208DF8010002207C
:102AE0008DF8020001208DF80300684600F002F81E
:102AF00008BD000070B5002100230F22C47804B384
:102B0000154C246804F4E064C4F5E064210AC1F1C2
:102B10000403CA40447804FA03F184781440214342
:102B200009010E4C0678A155047804F01F05012414
:102B3000AC4005786D11AD0005F1E025C5F8004108
:102B400009E0047804F01F050124AC40044D067828
:102B5000761145F8264070BD0CED00E000E400E081
:102B600080E100E002490143024A11607047000021
:102B70000000FA050CED00E0014908627047000012
:102B800000000E427047000029B1064A5269024314
:102B9000044B5A6104E0034A52698243014B5A6173
:102BA000704700000010024029B1064AD269024372
:102BB000044BDA6104E0034AD2698243014BDA61D3
:102BC000704700000010024029B1064A1269024312
:102BD000044B1A6104E0034A12698243014B1A61F3
:102BE000704700000010024029B1064A9269024372
:102BF000044B9A6104E0034A92698243014B9A6153
:102C0000704700000010024029B1064AD268024312
:102C1000044BDA6004E0034AD2688243014BDA6075
:102C20007047000000100240014908607047000032
:102C30004004424210B501460022002300204A1100
:102C4000012A02D1094C236806E0022A02D1074C6E
:102C5000236A01E0054C636A01F01F0201249440DD
:102C60001C400CB1012000E0002010BD001002400B
:102C700000210B4A11700A4A203A82F820100128DC
:102C800002D0042808D103E00121054A117004E0B4
:102C90000521034A117000E000BF00BF704700002B
:102CA0002010024001490860704700003C04424285
:102CB0000249096A0143014A11627047001002404B
:102CC000024909888143014A118070470428004065
:102CD00010B501214FF0C050FFF766FF0120FFF74C
:102CE0004BFFFDF77DFD0120FFF7C2FF00BF412034
:102CF000FFF7A0FF0028FAD04FF48070FFF7D8FF4D
:102D00000120FFF7CFFF00F091F800F085F80121D6
:102D1000084600F053F800F07FF847F6FF7000F027
:102D20006BF800F079F80020FFF726FF10BD0000D7
:102D30000348008840F010000149088070470000F7
:102D400004280040034800884FF6EF71084001490D
:102D50000880704704280040002103480188001FB4
:102D6000008841EA004070471C28004001460020CE
:102D7000064A12880A40D0B2044A121F12880A403A
:102D800012B108B1012000E0002070470428004083
:102D900010B50120FFF7EAFF50B10120FFF790FFC7
:102DA00000F03AF8034800F053F8012002490860A7
:102DB00010BD00000E0000202400002029B1064AAA
:102DC00012880243044B1A8004E0034A12888243AB
:102DD000014B1A80704700000028004000B50246F1
:102DE000FFF7A6FF100C03490880091D0A80FFF7B2
:102DF000A9FF00BD1828004000B50246FFF798FF64
:102E0000C2F3034003490880091D0A80FFF79AFFB7
:102E100000BD00000828004000BF0348008800F003
:102E200020000028F9D07047042800400748008897
:102E30004FF6F77108400549088000BF0348008835
:102E400000F008000028F9D0704700000428004076
:102E500070B504460025FFF77FFF0546214628464A
:102E6000FDF7C8FC70BD21B1028842F0400202802B
:102E700004E002884FF6BF731A40028070470000DA
:102E800070B505460C46164601211048FEF71CFC9D
:102E9000032000F047F9C4F3074000F043F9C4F3FE
:102EA000072000F03FF9E0B200F03CF904E0FF2019
:102EB00000F038F928706D1C3000A6F10106F6D13B
:102EC00001210248FEF702FC70BD00000010014025
:102ED0002DE9F05F07460E4614464FF00008C14644
:102EE000C2460025AB4606F0FF0ACAF10000C5B293
:102EF0002046E11704EB1161C1F30728E11704EB49
:102F000011610912A4EB012101F0FF09BAF1000FD0
:102F100020D1B8F1000F05D122463146384600F0E5
:102F200069F864E009E04FF480723146384600F0F9
:102F300061F806F5807607F580775FEA0800A8F16A
:102F4000010101F0FF08EED14A463146384600F053
:102F500051F84CE0B8F1000F18D1A94510DDA9EBEC
:102F6000050000F0FF0B2A463146384600F042F8D3
:102F70002E442F445A463146384600F03BF836E09E
:102F800022463146384600F035F830E0601B84B206
:102F90002046E11704EB1161C1F30728E11704EBA8
:102FA00011610912A4EB012101F0FF092A46314603
:102FB000384600F01FF82E442F4409E04FF4807289
:102FC0003146384600F016F806F5807607F580772A
:102FD0005FEA0800A8F1010101F0FF08EED1B9F1A4
:102FE000000F04D04A463146384600F003F8BDE8E9
:102FF000F09F000070B505460C46164600F0F6F846
:1030000001211348FEF760FB022000F08BF8C4F3A7
:10301000074000F087F8C4F3072000F083F8E0B21F
:1030200000F080F8B6F5807F01DD4FF4807603E094
:10303000287800F077F86D1C3000A6F101018EB2FF
:10304000F6D101210248FEF741FB00F0A5F870BD62
:103050000010014010B5002401210C48FEF734FB9C
:10306000AB2000F05FF8FF2000F05CF8FF2000F0DC
:1030700059F8FF2000F056F8FF2000F053F80446FE
:1030800001210248FEF722FB204610BD001001403E
:103090002DE9F041002400250026002701210F48DA
:1030A000FEF712FB9F2000F03DF8FF2000F03AF8F9
:1030B0000546FF2000F036F80646FF2000F032F803
:1030C000074601210548FEF701FB280440EA0620D7
:1030D00040EA07042046BDE8F081000000100140EE
:1030E00010B5044600F082F800F056F801210C48B3
:1030F000FEF7EAFA202000F015F8C4F3074000F0CC
:1031000011F8C4F3072000F00DF8E0B200F00AF85F
:1031100001210348FEF7DAFA00F03EF810BD000086
:103120000010014010B504464FF480501849086063
:1031300009E017490868411E154A116018B900F0E6
:1031400091F8C0B210BD0221124800F05FF80028CB
:10315000EFD021460F4800F065F84FF480500C493D
:10316000086009E00A490868411E094A116018B957
:1031700000F078F8C0B2E5E70121064800F046F813
:103180000028EFD0034800F04AF8C0B2DAE70000A8
:103190005C0000200030014010B5002401211148DE
:1031A000FEF792FA0520FFF7BDFF4FF480500E495D
:1031B000086000BFFF20FFF7B5FF04460A49086812
:1031C000411E094A116010B900F04CF810BD04F01E
:1031D00001000028EED101210248FEF777FA00BF76
:1031E000F4E70000001001405C00002010B5012150
:1031F0000548FEF769FA0620FFF794FF012102480F
:10320000FEF764FA10BD00000010014002460020E5
:1032100013890B400BB1012000E0002070470146EC
:10322000888970478181704710B50022028802F4B6
:1032300041520B884C8823438C882343CC882343FA
:103240000C8923434C8923438C892343CC89234312
:103250001A430280838B4FF2FF74234083830B8ACF
:10326000038210BD10B502A004F028FA002010BDA2
:103270003C3C2D464C4153482D4552524F522D3E19
:103280003E205350492054696D656F7574206572F6
:10329000726F72210A000000704710B500F002F84A
:1032A00010BD00000CB5002001900090334800686C
:1032B00040F480303149086000BF3048006800F4B5
:1032C000003000900198401C0190009818B90198B6
:1032D000B0F5A06FF1D12948006800F4003010B1BA
:1032E0000120009001E0002000900098012843D1C7
:1032F0002348006840F01000214908600846006833
:1033000020F0030008600846006840F002000860F2
:103310001A484068194948600846406848600846AD
:10332000406840F4806048600846406820F47C10A3
:1033300048600846406840F4E81048600846006865
:1033400040F08070086000BF0C48006800F000701A
:103350000028F9D00948406820F003000749486078
:103360000846406840F00200486000BF03484068DB
:1033700000F00C000828F9D10CBD0000001002403C
:103380000020024070B504460025208840F2B2714A
:10339000884204DB208840F63301884201DD0120A9
:1033A00070BD40F2B2760AE03046FFF70DFB10B177
:1033B0002148054401E021480544701C86B220885C
:1033C000B042F1DC012610E01D48805D40F2A321EF
:1033D000484305EBC0152088FFF7F6FA18B1022E16
:1033E00001D118480544701C86B2E078B042EBDC8D
:1033F0002079401E40F2A321484305EBC0156079B7
:10340000C0EB4011C1EB002005EB0015A079C0EB2B
:10341000001005EB8005E079054401214FF0C05014
:10342000FFF7C2FB0120FFF7A7FB2846FFF7D6FCFA
:10343000FFF7F2FC0020B3E70085E2018033E101F1
:103440008A83000880510100704710B5FEF74EF8DE
:10345000FFF70AFBFFF73CFCFDF724FFFEF71CF823
:1034600000F0C8F800F0B0F900F036F800F082F88B
:10347000FFF703FB10BD000010B51348006840F0D3
:1034800001001149086008464068104908400E498B
:103490004860084600680E4908400B490860084625
:1034A000006820F4802008600846406820F4FE0090
:1034B00048604FF41F008860FFF7EFFE4FF0006098
:1034C0000449086010BD0000001002400000FFF831
:1034D000FFFFF6FE08ED00E000B589B001210420F1
:1034E000FFF782FB4FF48070ADF8140018208DF8C0
:1034F000170003208DF8160005A91C48FEF750F8A8
:103500000121C802FFF770FB40F2E730ADF81C0064
:103510004720ADF818000020ADF81E00ADF81A00E5
:103520008DF8200006A9124800F022FB6020ADF8BB
:1035300004000120ADF806000020ADF808004FF4AB
:10354000FA70ADF80A000020ADF80C00ADF80E00DE
:10355000ADF81000ADF8120001A9054800F0B2FA6C
:103560000821034800F0FAFA09B000BD0008014044
:10357000002C01400EB501210846FFF715FB4FF066
:10358000804000F091F96320ADF8040041F61F403F
:10359000ADF800000020ADF80600ADF802008DF88F
:1035A000080069464FF0804000F0E2FA012211461F
:1035B000900700F07EFA0EBD10B50121880700F0DB
:1035C00067FA012810D10121800700F04FF9074860
:1035D0000088401C642190FBF1F201FB12000349BA
:1035E000088001200249086010BD00006200002030
:1035F000200000200EB501211020FFF7D5FA0C485D
:1036000000F052F96320ADF8040041F61F40ADF818
:1036100000006946064800F0ABFA01221146044852
:1036200000F047FA0121024800F023F90EBD000026
:103630000010004010B50121584800F029FA012877
:1036400073D10121554800F011F955480088401CFC
:10365000642190FBF1F201FB12005149088000F057
:10366000D9FA5048008850490880504800884D4990
:103670000880FFF7C7F94D49088008460088494986
:103680000988884244D14948008850B1464800889A
:1036900038B9802046490880444800884549088058
:1036A00036E042480088C0B13F480088A8B1C02039
:1036B0003F490880404800683C2804D23B480088C5
:1036C0003C49088024E03C4800683C2820D3374827
:1036D00000881030374908801AE03448008850B913
:1036E0003148008838B14020314908802E48008890
:1036F000304908800CE02D48008848B92A480088E5
:1037000030B900202A4908802848008829490880C3
:103710002A48007A802803D025480088802805D1CF
:103720000020254908602649086036E02348007AD1
:10373000C02803D01E480088C02805D11E48006854
:10374000401C1D49086028E01C48007A40280AD126
:1037500000201B490860184908601A480078401C7E
:103760001849087019E012480088402803D1002049
:103770001349086011E01148007A70B90C480088BC
:1037800058B90F480068401C0D4908600846006899
:103790003C2802D300200B49087010BD00100040E7
:1037A0006E000020680000206A00002066000020F3
:1037B0006C00002000000020040000207C0000209D
:1037C00008000020640000200EB501212020FFF732
:1037D000EBF90A4800F068F840F21F30ADF8040039
:1037E00041F61F40ADF800006946044800F0C0F9FA
:1037F00001221146014800F05CF90EBD00140040A2
:1038000010B50121164800F043F9012826D1012105
:10381000134800F02BF813480088401C192190FB36
:10382000F1F201FB12000F490880084600880828C1
:1038300010DA088800EBD0714910A0EB410121B9E2
:103840000121094800F021F808E00021064800F0B5
:103850001CF803E00021044800F017F810BD000038
:103860000014004070000020002C0140CA43028276
:10387000704721B1028842F00102028004E0028810
:103880004FF6FE731A400280704731B1B0F8442001
:1038900042F40042A0F8442005E0B0F84420C2F30E
:1038A0000E02A0F84420704710B5044668488442D0
:1038B00008D10121C014FFF7A7F90021E014FFF798
:1038C000A3F9C4E0B4F1804F08D101210846FFF705
:1038D0007BF900210120FFF777F9B8E05D488442C9
:1038E00008D101210220FFF76FF900210220FFF724
:1038F0006BF9ACE05848844208D101210420FFF75D
:1039000063F900210420FFF75FF9A0E053488442E7
:1039100008D101210820FFF757F900210820FFF7FF
:1039200053F994E04E48844208D101211020FFF75A
:103930004BF900211020FFF747F988E049488442FD
:1039400008D101212020FFF73FF900212020FFF7B7
:103950003BF97CE04448844208D101214014FFF740
:1039600053F900216014FFF74FF970E03F4884429B
:1039700009D10121C804FFF747F900214FF40020C5
:10398000FFF742F963E03A48844209D10121080572
:10399000FFF73AF900214FF48010FFF735F956E0B0
:1039A0003448844209D101214805FFF72DF900214F
:1039B0004FF40010FFF728F949E02F48844208D15E
:1039C00001214020FFF700F900214020FFF7FCF81B
:1039D0003DE02A48844208D101218020FFF7F4F815
:1039E00000218020FFF7F0F831E02548844208D11B
:1039F00001218015FFF7E8F80021A015FFF7E4F892
:103A000025E02048844209D101210804FFF7FCF891
:103A100000214FF48030FFF7F7F818E01A4884428D
:103A200009D101214804FFF7EFF800214FF40030DD
:103A3000FFF7EAF80BE01548844208D10121880419
:103A4000FFF7E2F800214FF48020FFF7DDF810BD0A
:103A5000002C01400004004000080040000C004021
:103A6000001000400014004000340140004C0140B0
:103A7000005001400054014000180040001C00406C
:103A80000020004000400140004401400048014047
:103A900030B50246002000230024158A05EA010300
:103AA000958905EA010413B10CB1012000E0002062
:103AB00030BD1AB183890B43838102E083898B4334
:103AC0008381704770B5002400220023058C4FF6D7
:103AD000FE7635400584028C8388048B4FF68F7503
:103AE0002C40B51E2C400D882C43751E2A400D8994
:103AF0002A434D882A43144DA8420BD0134DA842A7
:103B000008D0134DA84205D0124DA84202D0124D44
:103B1000A84213D14FF6F7752A404D892A434FF634
:103B2000FB752A408D882A434FF6FF652B404FF6E0
:103B3000FF552B408D892B43CD892B4383800483F4
:103B4000CD888586028470BD002C01400034014080
:103B50000040014000440140004801400A46002165
:103B6000018B4FF6F7731940114301837047000032
:103B7000002202881D4B98420ED01D4B98420BD05C
:103B8000B0F1804F08D01B4B984205D01A4B984299
:103B900002D01A4B984204D14FF68F731A404B88CB
:103BA0001A43174B984207D0164B984204D04FF651
:103BB000FF431A40CB881A4302808B8883850B8889
:103BC00003850A4B98420BD0094B984208D00E4B04
:103BD000984205D00D4B984202D00D4B984201D12E
:103BE0000B7A03860123838270470000002C01407A
:103BF000003401400004004000080040000C004078
:103C0000001000400014004000400140004401400A
:103C10000048014008B51F48007808B31E496846AF
:103C200003F028F930B1BDF800001C498880BDF8C8
:103C30000200C8801948007A00F0800048B980204E
:103C4000164908720846808808800846C08848805F
:103C50001BE01248007A40F040001049087214E05E
:103C60000E48007A00F0800030B10C48007A20F055
:103C700080000A49087208E000200849087208809C
:103C800048804FF6FF708880C8800448007A00F0B2
:103C9000800008BD58000020280000207C00002083
:103CA00000B59FB0782015908220149000204FF42A
:103CB000A073F02201460090FDF7F8FF4FF6FF7069
:103CC0000023F6A2142100901720FEF73BF94FF6CF
:103CD000FF700023F3A2142100904D20FEF732F96B
:103CE0004FF6FF700023F1A2142100908320FEF70D
:103CF00029F94FF6FF700023EEA214210090B9209D
:103D0000FEF720F9012000901498099015984FF6BD
:103D1000FF73462208900999FEF70AFA01204FF630
:103D2000FF731E224FF48C7100907820FEF700FA8A
:103D30001F204FF6FF73E1A240F2111100906B209B
:103D4000FEF700F921E2DF48C0790390FCF7BEFBE3
:103D5000DD4ADE4BCDE90401FCF7C6FADC4ADD4B57
:103D6000CDE90601FCF7BAFACDE90801FCF71AFC27
:103D70001C901598FCF799FBCDE906011C98FCF7FF
:103D8000EAFBCDE9000104F0A3F90022D24BCDE912
:103D90000201FCF7A9FACDE90401DDE90623FCF7ED
:103DA000FCF9CDE90801FCF79EFB1B901498FCF789
:103DB0007CFBCDE906011C98FCF7CDFBCDE90001A9
:103DC00004F052FA0022C44BCDE90201FCF78CFA50
:103DD000CDE90401DDE90623FCF7DFF9CDE90801AF
:103DE000FCF781FB1A904FF4784000901A9880B24B
:103DF00009901B9880B20890149880B2079015988B
:103E000080B2069007A90EC9FEF758FAAD4880792E
:103E10000390FCF75BFBAC4AAC4BCDE90401FCF72B
:103E200063FAAB4AAB4BCDE90601FCF757FACDE993
:103E30000801FCF7B7FB1C901598FCF736FBCDE9A1
:103E400006011C98FCF787FBCDE9000104F040F95E
:103E50000022A24BCDE90201FCF746FACDE90401AC
:103E6000DDE90623FCF799F9CDE90801FCF73BFBF6
:103E700019901498FCF719FBCDE906011C98FCF782
:103E80006AFBCDE9000104F0EFF90022934BCDE984
:103E90000201FCF729FACDE90401DDE90623FCF76C
:103EA0007CF9CDE90801FCF71EFB18901F2000905B
:103EB000189880B20990199880B20890149880B22E
:103EC0000790159880B2069007A90EC9FEF7F6F97B
:103ED0007C4840790390FCF7F9FA814A814BCDE99F
:103EE0000401FCF701FA7A4A7A4BCDE90601FCF7A6
:103EF000F5F9CDE90801FCF755FB1C901598FCF786
:103F0000D4FACDE906011C98FCF725FBCDE90001A8
:103F100004F0DEF80022744BCDE90201FCF7E4F96D
:103F2000CDE90401DDE90623FCF737F9CDE9080105
:103F3000FCF7D9FA17901498FCF7B7FACDE9060107
:103F40001C98FCF708FBCDE9000104F08DF9002274
:103F5000654BCDE90201FCF7C7F9CDE90401DDE9C4
:103F60000623FCF71AF9CDE90801FCF7BCFA169014
:103F70004FF4FC600090169880B20990179880B2B8
:103F80000890149880B20790159880B2069007A9FF
:103F90000EC9FEF793F95548FCF79BFC4948C079D8
:103FA0000090484880790990464840790890024638
:103FB0004FA10AA8099B03F091FB4FF6FF70002365
:103FC0000AAAD22100905920FDF7EAFF3D48007966
:103FD00000903C48C07809903A4800880890024612
:103FE00047A10AA8099B03F079FB4FF6FF70002355
:103FF0000AAAE62100904F20FDF7D2FF4448007A3C
:1040000000284AD0FDF77EFB1D901D98792808D125
:1040100000BF3F48007A0028FBD120203D490870AE
:10402000B4E01D987A2808D100BF3948007A0028EA
:10403000FBD1012037490870A8E01D987B2808D1E2
:1040400000BF3348007A0028FBD1022031490870B4
:104050009CE01D987C2808D100BF2D48007A0028DC
:10406000FBD103202B49087090E01D987D2808D1D2
:1040700000BF2748007A0028FBD11020254908708E
:1040800084E01D987E2847D100BF2148007A00288F
:10409000FBD104201F49087078E03DE0CAB1D6D3B7
:1040A00000000000C4D6D6D300000000C3EBB1ED81
:1040B00000000000BCC6CAB100000000C9E8D6C3B9
:1040C000000000000E000020FF8D50466FCBBA3F6D
:1040D0001F85EB51B81EF93F00004E4000004940DB
:1040E000BF58F28B25BFE03F0000444040420F0024
:1040F000253032643A253032643A2530326400008B
:10410000253032642D253032642D25303264000094
:104110007C0000200C0000204FF6FF7000901A98E1
:1041200080B209901B9880B20890149880B20790D2
:10413000159880B2069007A90EC9FEF7BFF84FF692
:10414000FF700090189880B20990199880B208907A
:10415000149880B20790159880B2069007A90EC9EE
:10416000FEF7ACF84FF6FF700090169880B20990F9
:10417000179880B20890149880B20790159880B272
:10418000069007A90EC9FEF799F8DCE500BF1FB03D
:1041900000BD000000B595B078200C9064200B9015
:1041A00000204FF4A073F02201460090FDF77EFD41
:1041B0004FF6FF700023FEA2142100901720FDF798
:1041C000C1FE4FF6FF700023FBA2142100904D208A
:1041D000FDF7B8FE4FF6FF700023F9A214210090FE
:1041E0008320FDF7AFFE4FF6FF700023F6A21421E7
:1041F0000090B920FDF7A6FE01204FF6FF73322292
:10420000642100907820FDF793FF01204FF6FF71A5
:104210003223F022CDE900109B210020FEF7A5F803
:1042200000204FF6FF73EAA29B2100900A20FDF7C1
:10423000E0FE1F20B7239722194600900A20FEF7C0
:104240003DF801201F2114232822CDE90010A521CB
:10425000B920FEF78AF80120002114231A46CDE97F
:104260000010A521CD20FEF780F800200A9018E06C
:10427000002000900A9800EB4000D74908440990BC
:104280000A9800EB80000A2101EB800080B24FF613
:10429000FF730890B921099AFDF754FE0A98401C53
:1042A0000A900A980728E3DB01214FF6FF703223BA
:1042B000F022CDE90001D2210020FEF756F80020BF
:1042C0004FF6FF73C2A2D22100900A20FDF791FEA3
:1042D0001F20ED239722194600900A20FDF7EEFFDC
:1042E00001201F2114232822CDE90010DC21B92050
:1042F000FEF73BF80121002014231A46CDE9000106
:10430000DC21CD20FEF731F800200A9018E00020D3
:1043100000900A9800EB4000AF49084409900A98C1
:1043200000EB80000A2101EB800080B24FF6FF73A2
:104330000890F021099AFDF705FE0A98401C0A90A2
:104340000A980728E3DB01214FF6FF703223F022A1
:10435000CDE9000140F209110020FEF706F8002027
:104360004FF6FF739AA240F2091100900A20FDF760
:1043700040FE1F204FF492739722194600900A20A6
:10438000FDF79CFF01201F2114232822CDE90010F6
:1043900040F21311B920FDF7E8FF0120002114239A
:1043A0001A46CDE9001040F21311CD20FDF7DDFFD4
:1043B00000200A9019E0002000900A9800EB4000CD
:1043C0008549084409900A9800EB80000A2101EB16
:1043D000800080B24FF6FF73089040F22711099ACF
:1043E000FDF7B0FD0A98401C0A900A980728E2DB06
:1043F000EFE17A48C0790390FCF768F8784A794B86
:10440000CDE90401FBF770FF774A784BCDE906014F
:10441000FBF764FFCDE90801FCF7C4F813900C9892
:10442000FCF743F8CDE906011398FCF794F8CDE9C1
:10443000000103F04DFE00226D4BCDE90201FBF7B8
:1044400053FFCDE90401DDE90623FBF7A6FECDE924
:104450000801FCF748F812900B98FCF726F8CDE914
:1044600006011398FCF777F8CDE9000103F0FCFE94
:1044700000225F4BCDE90201FBF736FFCDE90401D5
:10448000DDE90623FBF789FECDE90801FCF72BF8EF
:1044900011904FF478400090119880B209901298D2
:1044A00080B208900B9880B207900C9880B206906A
:1044B00007A90EC9FDF702FF484880790390FCF771
:1044C00005F8474A474BCDE90401FBF70DFF464A83
:1044D000464BCDE90601FBF701FFCDE90801FCF7EA
:1044E00061F813900C98FBF7E0FFCDE906011398F3
:1044F000FCF731F8CDE9000103F0EAFD00223D4B65
:10450000CDE90201FBF7F0FECDE90401DDE9062368
:10451000FBF743FECDE90801FBF7E5FF10900B9890
:10452000FBF7C3FFCDE906011398FCF714F8CDE9BA
:10453000000103F099FE00222E4BCDE90201FBF7AA
:10454000D3FECDE90401DDE90623FBF726FECDE924
:104550000801FBF7C8FF0F901F2000900F9880B252
:104560000990109880B208900B9880B207900C9830
:1045700080B2069007A90EC9FDF7A0FE1748407942
:104580000390FBF7A3FF1C4A1C4BCDE90401FBF78A
:10459000ABFE154A154BCDE90601FBF79FFECDE9B1
:1045A0000801FBF7FFFF13900C98FBF77EFF27E055
:1045B000CAB1D6D300000000C4D6D6D30000000094
:1045C000C3EBB1ED00000000BCC6CAB100000000A2
:1045D00030303A3030000000188300080E00002010
:1045E000FF8D50466FCBBA3F1F85EB51B81EF93F88
:1045F0000080464000804140BF58F28B25BFE03F1D
:10460000CDE906011398FBF7A6FFCDE9000103F001
:104610005FFD0022714BCDE90201FBF765FECDE99C
:104620000401DDE90623FBF7B8FDCDE90801FBF73E
:104630005AFF0E900B98FBF738FFCDE9060113984F
:10464000FBF789FFCDE9000103F00EFE0022634B6A
:10465000CDE90201FBF748FECDE90401DDE90623BF
:10466000FBF79BFDCDE90801FBF73DFF0D904FF4F3
:10467000FC6000900D9880B209900E9880B208906E
:104680000B9880B207900C9880B2069007A90EC9CB
:10469000FDF714FE5248FCF71CF95248007A002836
:1046A0005ED0FDF72FF814901498792807D100BF39
:1046B0004C48007A0028FBD14B4908708AE01498D6
:1046C0007A2808D100BF4748007A0028FBD1202073
:1046D000454908707EE014987B2808D100BF414806
:1046E000007A0028FBD102213F48017072E0149843
:1046F0007C2808D100BF3B48007A0028FBD103206A
:104700003949087066E014988A2829D014989428AA
:1047100026D014989E2823D01498892808D100BF49
:104720003048007A0028FBD106202F49087051E05C
:104730001498932808D100BF2A48007A0028FBD19A
:1047400006202949087045E014989D2808D100BF2B
:104750002448007A0028FBD106202349087039E05C
:104760004FF6FF700090119880B20990129880B2B5
:1047700008900B9880B207900C9880B2069007A919
:104780000EC9FDF79BFD4FF6FF7000900F9880B2A9
:104790000990109880B208900B9880B207900C98FE
:1047A00080B2069007A90EC9FDF788FD4FF6FF708D
:1047B00000900D9880B209900E9880B208900B98E6
:1047C00080B207900C9880B2069007A90EC9FDF739
:1047D00075FD0EE600BF15B000BD000000003940B9
:1047E00040420F007C0000200C00002000B5A1B06A
:1047F000002020901F901E9078200B9064200A903B
:1048000000204FF4A073F02201460090FDF74EFA0D
:104810004FF6FF700023FEA2142100901720FDF731
:1048200091FB4FF6FF700023FBA2142100904D2056
:10483000FDF788FB4FF6FF700023F9A214210090CA
:104840008320FDF77FFB4FF6FF700023F6A21421B3
:104850000090B920FDF776FB012000900A9809909E
:104860000B984FF6FF73322208900999FDF760FC10
:1048700001204FF6FF711E234822CDE9001040F2BF
:104880001D110620FDF771FD1F204FF6FF73E8A2F2
:104890004FF4927100901A20FDF754FB01204FF65F
:1048A000FF711E234822CDE9001040F21D11542053
:1048B000FDF75BFD1F204FF6FF73DFA24FF49271EF
:1048C00000906820FDF73EFB01204FF6FF711E238C
:1048D0004822CDE9001040F21D11A220FDF745FD50
:1048E0001F204FF6FF73D6A24FF492710090B620AE
:1048F000FDF728FBA9E2D448C0790390FBF7E6FD59
:10490000D24AD34BCDE90401FBF7EEFCD14AD24B9E
:10491000CDE90601FBF7E2FCCDE90801FBF742FE19
:1049200012900B98FBF7C1FDCDE906011298FBF739
:1049300012FECDE9000103F0CBFB0022C74BCDE90D
:104940000201FBF7D1FCCDE90401DDE90623FBF709
:1049500024FCCDE90801FBF7C6FD11900A98FBF78E
:10496000A4FDCDE906011298FBF7F5FDCDE90001A4
:1049700003F07AFC0022B94BCDE90201FBF7B4FC4D
:10498000CDE90401DDE90623FBF707FCCDE90801C9
:10499000FBF7A9FD10904FF478400090109880B27A
:1049A0000990119880B208900A9880B207900B98ED
:1049B00080B2069007A90EC9FDF780FCA248807955
:1049C0000390FBF783FDA14AA14BCDE90401FBF75E
:1049D0008BFCA04AA04BCDE90601FBF77FFCCDE99B
:1049E0000801FBF7DFFD12900B98FBF75EFDCDE9A8
:1049F00006011298FBF7AFFDCDE9000103F068FB5B
:104A00000022974BCDE90201FBF76EFCCDE90401D2
:104A1000DDE90623FBF7C1FBCDE90801FBF763FDE8
:104A20000F900A98FBF741FDCDE906011298FBF7BC
:104A300092FDCDE9000103F017FC0022884BCDE97F
:104A40000201FBF751FCCDE90401DDE90623FBF788
:104A5000A4FBCDE90801FBF746FD0E901F20009056
:104A60000E9880B209900F9880B208900A9880B290
:104A700007900B9880B2069007A90EC9FDF71EFC9F
:104A8000714840790390FBF721FD764A764BCDE9DA
:104A90000401FBF729FC6F4A6F4BCDE90601FBF7D8
:104AA0001DFCCDE90801FBF77DFD12900B98FBF78B
:104AB000FCFCCDE906011298FBF74DFDCDE90001A4
:104AC00003F006FB0022694BCDE90201FBF70CFC69
:104AD000CDE90401DDE90623FBF75FFBCDE9080121
:104AE000FBF701FD0D900A98FBF7DFFCCDE906010D
:104AF0001298FBF730FDCDE9000103F0B5FB002271
:104B00005A4BCDE90201FBF7EFFBCDE90401DDE9EA
:104B10000623FBF742FBCDE90801FBF7E4FC0C9010
:104B20004FF4FC6000900C9880B209900D9880B210
:104B300008900A9880B207900B9880B2069007A957
:104B40000EC9FDF7BBFB4A48FBF7C3FE49480068A6
:104B5000012826D10020474908601E98401C1E905D
:104B60001E9863281DD900201E901F98401C1F907E
:104B70001F983B2815D900201F902098401C20909A
:104B800020983B280DD9002020901F901E900022D5
:104B900001218807FEF78DFF00214FF08040FEF7CE
:104BA00068FE1E98009034A114A8DDE91F3202F0BF
:104BB00095FD4FF6FF70002314AAB4210090142035
:104BC000FDF740FA3048007A00287DD0FCF79AFDC6
:104BD00013902D488088062866DB2B4880884E2855
:104BE00062DA2948C088B0F58E7F5DDD2648C0882E
:104BF000B0F59D7F58DC012211469007FEF759FF62
:104C000001218807FEF735FE1E9800901AA13DE0AD
:104C1000CAB1D6D300000000C4D6D6D3000000002D
:104C2000C3EBB1ED00000000BCC6CAB1000000003B
:104C3000BFAACABC00000000D4DDCDA30000000064
:104C4000D6D8D6C3000000000E000020FF8D5046CD
:104C50006FCBBA3F1F85EB51B81EF93F008046402D
:104C600000804140BF58F28B25BFE03F0000394033
:104C700040420F0020000020253032643A253032B7
:104C8000642E2530326400007C00002014A8DDE989
:104C90001F3202F023FD4FF6FF70002314AAB42147
:104CA00000901420FDF7CEF96A48808854282BDB49
:104CB000684880889C2827DA6648C088B0F58E7FCF
:104CC00022DD6448C08800E050E0B0F59D7F1BDC29
:104CD000002201218807FEF7ECFE00214FF0804002
:104CE000FEF7C7FD1E980090AFF2740114A8DDE92D
:104CF0001F3202F0F3FC4FF6FF70002314AAB42118
:104D000000901420FDF79EF952488088A2282DDBE0
:104D100050488088EA2829DA4E48C088B0F58E7F4E
:104D200024DD4C48C088B0F59D7F1FDC002020901A
:104D30001F901E90002201218807FEF7BAFE002175
:104D40004FF08040FEF795FD1E980090AFF2D8011D
:104D500014A8DDE91F3202F0C1FC4FF6FF700023FA
:104D600014AAB42100901420FDF76CF93948007A98
:104D700088B3FCF7C7FC13901398792807D100BFBC
:104D80003448007A0028FBD1334908705EE013985C
:104D90007A2808D100BF2F48007A0028FBD10120D3
:104DA0002D49087052E013987B2808D100BF29488C
:104DB000007A0028FBD120202749087046E013988C
:104DC0007C2809D100BF2348007A0028FBD10320AA
:104DD000214908703AE0FFE74FF6FF700090109805
:104DE00080B20990119880B208900A9880B207901A
:104DF0000B9880B2069007A90EC9FDF75FFA4FF62F
:104E0000FF7000900E9880B209900F9880B20890C1
:104E10000A9880B207900B9880B2069007A90EC935
:104E2000FDF74CFA4FF6FF7000900C9880B2099095
:104E30000D9880B208900A9880B207900B9880B2C3
:104E4000069007A90EC9FDF739FA54E500BF21B055
:104E500000BD00007C0000200C00002000B5A1B0C7
:104E60000120209000201F901E9078200B9064203D
:104E70000A9000204FF4A073F02201460090FCF746
:104E800015FF4FF6FF700023FCA21421009017209D
:104E9000FDF758F84FF6FF700023FAA21421009096
:104EA0004D20FDF74FF84FF6FF700023F7A21421B5
:104EB00000908320FDF746F84FF6FF700023F5A21F
:104EC00014210090B920FDF73DF801204FF6FF7343
:104ED0003222642100907820FDF72AF94FF6FF7006
:104EE0000023EEA2B42100904B20FDF72BF8EDA19A
:104EF00014A8209A02F0F2FB4FF6FF70002314AAC8
:104F0000C82100903C20FDF79DF84FF6FF7000236C
:104F1000E6A2B42100908C20FDF714F84FF6FF7044
:104F20000023E3A2C82100907020FDF78BF8DDA1DB
:104F300014A81F9A02F0D2FB4FF6FF70002314AAA8
:104F4000C82100908220FDF77DF801204FF6FF7107
:104F50001E234822CDE9001040F21D110620FDF766
:104F600004FA1F204FF6FF73D2A24FF49271009003
:104F70001A20FCF7E7FF01204FF6FF711E2348229D
:104F8000CDE9001040F21D115420FDF7EEF91F206D
:104F90004FF6FF73C9A24FF4927100906820FCF79E
:104FA000D1FF01204FF6FF711E234822CDE90010EA
:104FB00040F21D11A220FDF7D8F91F204FF6FF7314
:104FC000C0A24FF492710090B620FCF7BBFF3EE206
:104FD000BE48C0790390FBF779FABD4ABD4BCDE9D5
:104FE0000401FBF781F9BC4ABC4BCDE90601FBF794
:104FF00075F9CDE90801FBF7D5FA12900B98FBF78C
:1050000054FACDE906011298FBF7A5FACDE90001A3
:1050100003F05EF80022B24BCDE90201FBF764F920
:10502000CDE90401DDE90623FBF7B7F8CDE9080176
:10503000FBF759FA11900A98FBF737FACDE9060108
:105040001298FBF788FACDE9000103F00DF9002270
:10505000A34BCDE90201FBF747F9CDE90401DDE9F6
:105060000623FBF79AF8CDE90801FBF73CFA10900C
:105070004FF478400090109880B20990119880B257
:1050800008900A9880B207900B9880B2069007A902
:105090000EC9FDF713F98D4880790390FBF716FAD6
:1050A0008B4A8C4BCDE90401FBF71EF98A4A8B4BE6
:1050B000CDE90601FBF712F9CDE90801FBF772FA19
:1050C00012900B98FBF7F1F9CDE906011298FBF766
:1050D00042FACDE9000102F0FBFF0022814BCDE94D
:1050E0000201FBF701F9CDE90401DDE90623FBF735
:1050F00054F8CDE90801FBF7F6F90F900A98FBF791
:10510000D4F9CDE906011298FBF725FACDE90001A3
:1051100003F0AAF80022734BCDE90201FBF7E4F893
:10512000CDE90401DDE90623FBF737F8CDE90801F5
:10513000FBF7D9F90E901F2000900E9880B20990CD
:105140000F9880B208900A9880B207900B9880B2AE
:10515000069007A90EC9FDF7B1F85C4840790390A5
:10516000FBF7B4F9604A614BCDE90401FBF7BCF8E9
:10517000594A5A4BCDE90601FBF7B0F8CDE90801D1
:10518000FBF710FA12900B98FBF78FF9CDE90601A7
:105190001298FBF7E0F9CDE9000102F099FF002237
:1051A000534BCDE90201FBF79FF8CDE90401DDE99E
:1051B0000623FAF7F2FFCDE90801FBF794F90D9009
:1051C0000A98FBF772F9CDE906011298FBF7C3F9CB
:1051D000CDE9000103F048F80022454BCDE902017A
:1051E000FBF782F8CDE90401DDE90623FAF7D5FFE4
:1051F000CDE90801FBF777F90C904FF4FC600090C3
:105200000C9880B209900D9880B208900A9880B2EC
:1052100007900B9880B2069007A90EC9FDF74EF8CB
:105220003448FBF756FB3448007A002825D0324832
:10523000C088B0F58E7F20DD2F48C088B0F59D7FF7
:105240001BDC2D488088062817DB2B4880884E28D9
:1052500013DA8BE02848C088B0F58E7F4EDD2648F3
:10526000C088B0F59D7F49DC23488088402845DB15
:10527000214880889C2841DA79E079E0CAB1D6D308
:1052800000000000C4D6D6D300000000C3EBB1ED8F
:1052900000000000BCC6CAB100000000B7D6D6D3DB
:1052A000000000002530326400000000C3EB000065
:1052B0003A000000BFAACABC00000000D4DDCDA3A4
:1052C00000000000D6D8D6C3000000000E00002069
:1052D000FF8D50466FCBBA3F1F85EB51B81EF93F8B
:1052E0000080464000804140BF58F28B25BFE03F20
:1052F0000000394040420F007C0000205648006802
:10530000012815D10020544908601F98401E1F90A5
:105310001F9800280CDA3B201F902098401E2090F8
:105320002098002804DA01200860002020901F90B7
:10533000AFF2900114A8209A02F0D0F94FF6FF7056
:10534000002314AAC82100903C20FCF77BFEAFF29A
:10535000AC0114A81F9A02F0C1F94FF6FF700023A8
:1053600014AAC82100908220FCF76CFE72E700BFEF
:105370003A48007A88B3FCF7C5F913901398792856
:1053800007D100BF3548007A0028FBD134490870A6
:105390005EE013987A2808D100BF3048007A0028D0
:1053A000FBD101202E49087052E013987B2808D1C8
:1053B00000BF2A48007A0028FBD102202849087043
:1053C00046E013987C2809D100BF2448007A0028C1
:1053D000FBD12020224908703AE0FFE74FF6FF702A
:1053E0000090109880B20990119880B208900A98A5
:1053F00080B207900B9880B2069007A90EC9FCF7FF
:105400005DFF4FF6FF7000900E9880B209900F98E4
:1054100080B208900A9880B207900B9880B20690EC
:1054200007A90EC9FCF74AFF4FF6FF7000900C98D1
:1054300080B209900D9880B208900A9880B20790C7
:105440000B9880B2069007A90EC9FCF737FFBFE59D
:1054500000BF21B000BD0000240000207C0000201F
:105460000C0000201CB500204FF4A073F022014670
:105470000090FCF71BFC4FF6FF700023BBA20A2133
:1054800000900846FCF707FE4FF6FF700023B9A214
:105490000A210090B920FCF755FD4FF6FF7000235C
:1054A000B6A2282100903220FCF77AFD4FF6FF705B
:1054B0000023B4A2282100905A20FCF743FD4FF6A8
:1054C000FF700023B0A2282100906E20FCF768FD39
:1054D0004FF6FF700023ADA2282100908220FCF738
:1054E00031FD4FF6FF700023A9A2282100909620DD
:1054F000FCF756FD4FF6FF700023A6A2282100906E
:10550000AA20FCF71FFD4FF6FF700023A2A2412145
:1055100000903820FCF76DFD01204FF6FF711E232F
:105520004822CDE90010B4210620FCF71EFF1F2001
:105530004FF6FF739BA2BB2100902620FCF730FDA5
:1055400001204FF6FF711E234822CDE90010D7211C
:105550000620FCF70AFF1F204FF6FF7392A2DE2100
:1055600000902620FCF71CFD01204FF6FF711E2342
:105570004822CDE90010FA210620FCF7F6FE1F2094
:105580004FF6FF7389A240F2011100902620FCF72C
:1055900007FD01204FF6FF711E234822CDE90010C0
:1055A00040F21D110620FCF7E0FE1F204FF6FF73AE
:1055B0007FA24FF4927100901A20FCF7C3FC0120E7
:1055C0004FF6FF711E234822CDE90010B42154206C
:1055D000FCF7CBFE1F204FF6FF7377A2BB21009094
:1055E0007420FCF7DDFC01204FF6FF711E234822DA
:1055F000CDE90010D7215420FCF7B7FE1F204FF64D
:10560000FF736EA2DE2100907420FCF7C9FC01201C
:105610004FF6FF711E234822CDE90010FA215420D5
:10562000FCF7A3FE1F204FF6FF7365A240F20111A5
:1056300000907420FCF7B4FC01204FF6FF711E238C
:105640004822CDE9001040F21D115420FCF78DFED8
:105650001F204FF6FF735BA24FF4927100907420ED
:10566000FCF79EFC01204FF6FF711E234822CDE976
:105670000010B421A220FCF778FE1F204FF6FF7324
:1056800051A2BB210090C220FCF78AFC01204FF6FA
:10569000FF711E234822CDE90010D721A220FCF77C
:1056A00064FE1F204FF6FF7348A2DE210090C22047
:1056B000FCF776FC01204FF6FF711E234822CDE94E
:1056C0000010FA21A220FCF750FE1F204FF6FF73B6
:1056D0003FA240F201110090C220FCF761FC0120C2
:1056E0004FF6FF711E234822CDE9001040F21D1134
:1056F000A220FCF73AFE1F204FF6FF7335A24FF4AD
:1057000092710090B620FCF71DFC2CE03348007A23
:1057100048B3FBF7F7FF04468D2C07D100BF2F4895
:10572000007A0028FBD12E4908701DE07A2C08D1A0
:1057300000BF2A48007A0028FBD1012028490870C0
:1057400012E07B2C08D100BF2448007A0028FBD14E
:1057500002202349087007E07C2C04D100BF1F48B9
:10576000007A0028FBD1D1E700BF1CBD3C3C20B72C
:10577000B5BBD800B1A3B4E600000000323031362A
:1057800000000000C4EA000031320000D4C2000072
:1057900031300000C8D5000031303A31313A313271
:1057A000000000003100000034000000370000005D
:1057B000C7E5B3FD00000000320000003500000026
:1057C0003800000030000000330000003600000008
:1057D00039000000C8B7B6A8000000007C00002017
:1057E0000C000020704700007CB5002400204FF41E
:1057F000A073F02201460090FCF758FA4FF6FF70B4
:105800000023A7A20A2100900846FCF744FC4FF6AB
:10581000FF700023A4A20A210090B920FCF792FB9C
:1058200045F6DA400023A2A2282100903C20FCF794
:1058300009FC45F6DA4000239EA2282100906C2046
:10584000FCF700FC45F6DA4000239BA228210090DB
:105850007C20FCF7F7FB00BF11E04FF4784004EB2D
:105860004401964BCA1804EBC40101EB0411283122
:10587000009088B200235B21FCF764FB641C072CBA
:10588000EBDB01204FF6FF711E234822CDE900100B
:10589000B4210620FCF769FD1F204FF6FF7388A294
:1058A000BB2100902620FCF77BFB01204FF6FF7107
:1058B0001E234822CDE90010D7210620FCF755FD14
:1058C0001F204FF6FF737FA2DE2100902620FCF7F9
:1058D00067FB01204FF6FF711E234822CDE900101F
:1058E000FA210620FCF741FD1F204FF6FF7376A238
:1058F00040F2011100902620FCF752FB01204FF6E8
:10590000FF711E234822CDE9001040F21D11062030
:10591000FCF72BFD1F204FF6FF736CA24FF4927122
:1059200000901A20FCF70EFB01204FF6FF711E239A
:105930004822CDE90010B4215420FCF716FD1F20A9
:105940004FF6FF7363A2BB2100907420FCF728FB85
:1059500001204FF6FF711E234822CDE90010D72108
:105960005420FCF702FD1F204FF6FF735AA2DE21E0
:1059700000907420FCF714FB01204FF6FF711E23EA
:105980004822CDE90010FA215420FCF7EEFC1F203C
:105990004FF6FF7351A240F2011100907420FCF702
:1059A000FFFA01204FF6FF711E234822CDE90010B7
:1059B00040F21D115420FCF7D8FC1F204FF6FF7356
:1059C00047A24FF4927100907420FCF7E9FA01208D
:1059D0004FF6FF711E234822CDE90010B421A2200A
:1059E000FCF7C3FC1F204FF6FF733EA2BB210090C3
:1059F000C220FCF7D5FA01204FF6FF711E23482282
:105A0000CDE90010D721A220FCF7AFFC1F204FF6F4
:105A1000FF7335A2DE210090C220FCF7C1FA0120FD
:105A20004FF6FF711E234822CDE90010FA21A22073
:105A3000FCF79BFC1F204FF6FF732CA240F20111D4
:105A40000090C220FCF7ACFA01204FF6FF711E2334
:105A50004822CDE9001040F21D11A220FCF785FC80
:105A60001F204FF6FF7322A24FF492710090B620D0
:105A7000FCF768FA10E02048007A68B1FBF742FEB4
:105A80000546AB2D08D100BF1B48007A0028FBD18A
:105A900001201A49087000E0EDE700BF7CBD00005E
:105AA0003C3C20C4D6D6D300B1A3B4E6000000002D
:105AB000303600003A000000333000001883000840
:105AC000310000003400000037000000C7E5B3FDDE
:105AD0000000000032000000350000003800000027
